{
  "_format": "hh-sol-artifact-1",
  "contractName": "AbductionSquad",
  "sourceName": "contracts/AbductionSquad.sol",
  "abi": [
    {
      "inputs": [
        {
          "internalType": "address",
          "name": "revenueRecipient",
          "type": "address"
        },
        {
          "internalType": "bytes32",
          "name": "whitelistMerkleRoot",
          "type": "bytes32"
        },
        {
          "internalType": "bytes32",
          "name": "secondPeerMerkleRoot",
          "type": "bytes32"
        },
        {
          "internalType": "string",
          "name": "tempUri",
          "type": "string"
        }
      ],
      "stateMutability": "nonpayable",
      "type": "constructor"
    },
    {
      "inputs": [],
      "name": "ApprovalCallerNotOwnerNorApproved",
      "type": "error"
    },
    {
      "inputs": [],
      "name": "ApprovalQueryForNonexistentToken",
      "type": "error"
    },
    {
      "inputs": [],
      "name": "ApprovalToCurrentOwner",
      "type": "error"
    },
    {
      "inputs": [],
      "name": "ApproveToCaller",
      "type": "error"
    },
    {
      "inputs": [],
      "name": "BalanceQueryForZeroAddress",
      "type": "error"
    },
    {
      "inputs": [],
      "name": "MintToZeroAddress",
      "type": "error"
    },
    {
      "inputs": [],
      "name": "MintZeroQuantity",
      "type": "error"
    },
    {
      "inputs": [],
      "name": "OwnerIndexOutOfBounds",
      "type": "error"
    },
    {
      "inputs": [],
      "name": "OwnerQueryForNonexistentToken",
      "type": "error"
    },
    {
      "inputs": [],
      "name": "TokenIndexOutOfBounds",
      "type": "error"
    },
    {
      "inputs": [],
      "name": "TransferCallerNotOwnerNorApproved",
      "type": "error"
    },
    {
      "inputs": [],
      "name": "TransferFromIncorrectOwner",
      "type": "error"
    },
    {
      "inputs": [],
      "name": "TransferToNonERC721ReceiverImplementer",
      "type": "error"
    },
    {
      "inputs": [],
      "name": "TransferToZeroAddress",
      "type": "error"
    },
    {
      "anonymous": false,
      "inputs": [
        {
          "indexed": true,
          "internalType": "address",
          "name": "owner",
          "type": "address"
        },
        {
          "indexed": true,
          "internalType": "address",
          "name": "approved",
          "type": "address"
        },
        {
          "indexed": true,
          "internalType": "uint256",
          "name": "tokenId",
          "type": "uint256"
        }
      ],
      "name": "Approval",
      "type": "event"
    },
    {
      "anonymous": false,
      "inputs": [
        {
          "indexed": true,
          "internalType": "address",
          "name": "owner",
          "type": "address"
        },
        {
          "indexed": true,
          "internalType": "address",
          "name": "operator",
          "type": "address"
        },
        {
          "indexed": false,
          "internalType": "bool",
          "name": "approved",
          "type": "bool"
        }
      ],
      "name": "ApprovalForAll",
      "type": "event"
    },
    {
      "anonymous": false,
      "inputs": [
        {
          "indexed": true,
          "internalType": "bytes32",
          "name": "role",
          "type": "bytes32"
        },
        {
          "indexed": true,
          "internalType": "bytes32",
          "name": "previousAdminRole",
          "type": "bytes32"
        },
        {
          "indexed": true,
          "internalType": "bytes32",
          "name": "newAdminRole",
          "type": "bytes32"
        }
      ],
      "name": "RoleAdminChanged",
      "type": "event"
    },
    {
      "anonymous": false,
      "inputs": [
        {
          "indexed": true,
          "internalType": "bytes32",
          "name": "role",
          "type": "bytes32"
        },
        {
          "indexed": true,
          "internalType": "address",
          "name": "account",
          "type": "address"
        },
        {
          "indexed": true,
          "internalType": "address",
          "name": "sender",
          "type": "address"
        }
      ],
      "name": "RoleGranted",
      "type": "event"
    },
    {
      "anonymous": false,
      "inputs": [
        {
          "indexed": true,
          "internalType": "bytes32",
          "name": "role",
          "type": "bytes32"
        },
        {
          "indexed": true,
          "internalType": "address",
          "name": "account",
          "type": "address"
        },
        {
          "indexed": true,
          "internalType": "address",
          "name": "sender",
          "type": "address"
        }
      ],
      "name": "RoleRevoked",
      "type": "event"
    },
    {
      "anonymous": false,
      "inputs": [
        {
          "indexed": true,
          "internalType": "address",
          "name": "from",
          "type": "address"
        },
        {
          "indexed": true,
          "internalType": "address",
          "name": "to",
          "type": "address"
        },
        {
          "indexed": true,
          "internalType": "uint256",
          "name": "tokenId",
          "type": "uint256"
        }
      ],
      "name": "Transfer",
      "type": "event"
    },
    {
      "inputs": [],
      "name": "ADMIN_ROLE",
      "outputs": [
        {
          "internalType": "bytes32",
          "name": "",
          "type": "bytes32"
        }
      ],
      "stateMutability": "view",
      "type": "function"
    },
    {
      "inputs": [],
      "name": "AIRDROP_LIMIT",
      "outputs": [
        {
          "internalType": "uint256",
          "name": "",
          "type": "uint256"
        }
      ],
      "stateMutability": "view",
      "type": "function"
    },
    {
      "inputs": [],
      "name": "DEFAULT_ADMIN_ROLE",
      "outputs": [
        {
          "internalType": "bytes32",
          "name": "",
          "type": "bytes32"
        }
      ],
      "stateMutability": "view",
      "type": "function"
    },
    {
      "inputs": [],
      "name": "MOD_ROLE",
      "outputs": [
        {
          "internalType": "bytes32",
          "name": "",
          "type": "bytes32"
        }
      ],
      "stateMutability": "view",
      "type": "function"
    },
    {
      "inputs": [],
      "name": "Price",
      "outputs": [
        {
          "internalType": "uint256",
          "name": "",
          "type": "uint256"
        }
      ],
      "stateMutability": "view",
      "type": "function"
    },
    {
      "inputs": [],
      "name": "_secondPeerMerkleRoot",
      "outputs": [
        {
          "internalType": "bytes32",
          "name": "",
          "type": "bytes32"
        }
      ],
      "stateMutability": "view",
      "type": "function"
    },
    {
      "inputs": [],
      "name": "_whitelistMerkleRoot",
      "outputs": [
        {
          "internalType": "bytes32",
          "name": "",
          "type": "bytes32"
        }
      ],
      "stateMutability": "view",
      "type": "function"
    },
    {
      "inputs": [
        {
          "internalType": "address",
          "name": "to",
          "type": "address"
        },
        {
          "internalType": "uint256",
          "name": "quantity",
          "type": "uint256"
        }
      ],
      "name": "airdrop",
      "outputs": [],
      "stateMutability": "nonpayable",
      "type": "function"
    },
    {
      "inputs": [],
      "name": "airdropped",
      "outputs": [
        {
          "internalType": "bool",
          "name": "",
          "type": "bool"
        }
      ],
      "stateMutability": "view",
      "type": "function"
    },
    {
      "inputs": [
        {
          "internalType": "address",
          "name": "to",
          "type": "address"
        },
        {
          "internalType": "uint256",
          "name": "tokenId",
          "type": "uint256"
        }
      ],
      "name": "approve",
      "outputs": [],
      "stateMutability": "nonpayable",
      "type": "function"
    },
    {
      "inputs": [
        {
          "internalType": "address",
          "name": "owner",
          "type": "address"
        }
      ],
      "name": "balanceOf",
      "outputs": [
        {
          "internalType": "uint256",
          "name": "",
          "type": "uint256"
        }
      ],
      "stateMutability": "view",
      "type": "function"
    },
    {
      "inputs": [],
      "name": "collectionSize",
      "outputs": [
        {
          "internalType": "uint256",
          "name": "",
          "type": "uint256"
        }
      ],
      "stateMutability": "view",
      "type": "function"
    },
    {
      "inputs": [],
      "name": "finalizeLists",
      "outputs": [],
      "stateMutability": "nonpayable",
      "type": "function"
    },
    {
      "inputs": [],
      "name": "finalizeMetadata",
      "outputs": [],
      "stateMutability": "nonpayable",
      "type": "function"
    },
    {
      "inputs": [],
      "name": "finalizeTimes",
      "outputs": [],
      "stateMutability": "nonpayable",
      "type": "function"
    },
    {
      "inputs": [
        {
          "internalType": "uint256",
          "name": "tokenId",
          "type": "uint256"
        }
      ],
      "name": "getApproved",
      "outputs": [
        {
          "internalType": "address",
          "name": "",
          "type": "address"
        }
      ],
      "stateMutability": "view",
      "type": "function"
    },
    {
      "inputs": [
        {
          "internalType": "bytes32",
          "name": "role",
          "type": "bytes32"
        }
      ],
      "name": "getRoleAdmin",
      "outputs": [
        {
          "internalType": "bytes32",
          "name": "",
          "type": "bytes32"
        }
      ],
      "stateMutability": "view",
      "type": "function"
    },
    {
      "inputs": [
        {
          "internalType": "address",
          "name": "addr",
          "type": "address"
        }
      ],
      "name": "grantAdminRole",
      "outputs": [],
      "stateMutability": "nonpayable",
      "type": "function"
    },
    {
      "inputs": [
        {
          "internalType": "address",
          "name": "addr",
          "type": "address"
        }
      ],
      "name": "grantModRole",
      "outputs": [],
      "stateMutability": "nonpayable",
      "type": "function"
    },
    {
      "inputs": [
        {
          "internalType": "bytes32",
          "name": "role",
          "type": "bytes32"
        },
        {
          "internalType": "address",
          "name": "account",
          "type": "address"
        }
      ],
      "name": "grantRole",
      "outputs": [],
      "stateMutability": "nonpayable",
      "type": "function"
    },
    {
      "inputs": [
        {
          "internalType": "bytes32",
          "name": "role",
          "type": "bytes32"
        },
        {
          "internalType": "address",
          "name": "account",
          "type": "address"
        }
      ],
      "name": "hasRole",
      "outputs": [
        {
          "internalType": "bool",
          "name": "",
          "type": "bool"
        }
      ],
      "stateMutability": "view",
      "type": "function"
    },
    {
      "inputs": [
        {
          "internalType": "address",
          "name": "owner",
          "type": "address"
        },
        {
          "internalType": "address",
          "name": "operator",
          "type": "address"
        }
      ],
      "name": "isApprovedForAll",
      "outputs": [
        {
          "internalType": "bool",
          "name": "",
          "type": "bool"
        }
      ],
      "stateMutability": "view",
      "type": "function"
    },
    {
      "inputs": [],
      "name": "isPublicSaleActive",
      "outputs": [
        {
          "internalType": "bool",
          "name": "",
          "type": "bool"
        }
      ],
      "stateMutability": "view",
      "type": "function"
    },
    {
      "inputs": [],
      "name": "isWhitelistSaleActive",
      "outputs": [
        {
          "internalType": "bool",
          "name": "",
          "type": "bool"
        }
      ],
      "stateMutability": "view",
      "type": "function"
    },
    {
      "inputs": [],
      "name": "listsFinalized",
      "outputs": [
        {
          "internalType": "bool",
          "name": "",
          "type": "bool"
        }
      ],
      "stateMutability": "view",
      "type": "function"
    },
    {
      "inputs": [],
      "name": "metadataFinalized",
      "outputs": [
        {
          "internalType": "bool",
          "name": "",
          "type": "bool"
        }
      ],
      "stateMutability": "view",
      "type": "function"
    },
    {
      "inputs": [
        {
          "internalType": "uint256",
          "name": "quantity",
          "type": "uint256"
        }
      ],
      "name": "mint",
      "outputs": [],
      "stateMutability": "payable",
      "type": "function"
    },
    {
      "inputs": [],
      "name": "name",
      "outputs": [
        {
          "internalType": "string",
          "name": "",
          "type": "string"
        }
      ],
      "stateMutability": "view",
      "type": "function"
    },
    {
      "inputs": [
        {
          "internalType": "uint256",
          "name": "tokenId",
          "type": "uint256"
        }
      ],
      "name": "ownerOf",
      "outputs": [
        {
          "internalType": "address",
          "name": "",
          "type": "address"
        }
      ],
      "stateMutability": "view",
      "type": "function"
    },
    {
      "inputs": [],
      "name": "publicEnd",
      "outputs": [
        {
          "internalType": "uint256",
          "name": "",
          "type": "uint256"
        }
      ],
      "stateMutability": "view",
      "type": "function"
    },
    {
      "inputs": [],
      "name": "publicLimit",
      "outputs": [
        {
          "internalType": "uint256",
          "name": "",
          "type": "uint256"
        }
      ],
      "stateMutability": "view",
      "type": "function"
    },
    {
      "inputs": [],
      "name": "publicStart",
      "outputs": [
        {
          "internalType": "uint256",
          "name": "",
          "type": "uint256"
        }
      ],
      "stateMutability": "view",
      "type": "function"
    },
    {
      "inputs": [
        {
          "internalType": "uint256",
          "name": "_collectionSize",
          "type": "uint256"
        }
      ],
      "name": "reduceCollectionSize",
      "outputs": [],
      "stateMutability": "nonpayable",
      "type": "function"
    },
    {
      "inputs": [
        {
          "internalType": "bytes32",
          "name": "role",
          "type": "bytes32"
        },
        {
          "internalType": "address",
          "name": "account",
          "type": "address"
        }
      ],
      "name": "renounceRole",
      "outputs": [],
      "stateMutability": "nonpayable",
      "type": "function"
    },
    {
      "inputs": [],
      "name": "revealed",
      "outputs": [
        {
          "internalType": "bool",
          "name": "",
          "type": "bool"
        }
      ],
      "stateMutability": "view",
      "type": "function"
    },
    {
      "inputs": [
        {
          "internalType": "address",
          "name": "addr",
          "type": "address"
        }
      ],
      "name": "revokeAdminRole",
      "outputs": [],
      "stateMutability": "nonpayable",
      "type": "function"
    },
    {
      "inputs": [
        {
          "internalType": "address",
          "name": "addr",
          "type": "address"
        }
      ],
      "name": "revokeModRole",
      "outputs": [],
      "stateMutability": "nonpayable",
      "type": "function"
    },
    {
      "inputs": [
        {
          "internalType": "bytes32",
          "name": "role",
          "type": "bytes32"
        },
        {
          "internalType": "address",
          "name": "account",
          "type": "address"
        }
      ],
      "name": "revokeRole",
      "outputs": [],
      "stateMutability": "nonpayable",
      "type": "function"
    },
    {
      "inputs": [
        {
          "internalType": "address",
          "name": "from",
          "type": "address"
        },
        {
          "internalType": "address",
          "name": "to",
          "type": "address"
        },
        {
          "internalType": "uint256",
          "name": "tokenId",
          "type": "uint256"
        }
      ],
      "name": "safeTransferFrom",
      "outputs": [],
      "stateMutability": "nonpayable",
      "type": "function"
    },
    {
      "inputs": [
        {
          "internalType": "address",
          "name": "from",
          "type": "address"
        },
        {
          "internalType": "address",
          "name": "to",
          "type": "address"
        },
        {
          "internalType": "uint256",
          "name": "tokenId",
          "type": "uint256"
        },
        {
          "internalType": "bytes",
          "name": "_data",
          "type": "bytes"
        }
      ],
      "name": "safeTransferFrom",
      "outputs": [],
      "stateMutability": "nonpayable",
      "type": "function"
    },
    {
      "inputs": [],
      "name": "secondPeerLimit",
      "outputs": [
        {
          "internalType": "uint256",
          "name": "",
          "type": "uint256"
        }
      ],
      "stateMutability": "view",
      "type": "function"
    },
    {
      "inputs": [
        {
          "internalType": "bytes32[]",
          "name": "_merkleProof",
          "type": "bytes32[]"
        },
        {
          "internalType": "uint256",
          "name": "quantity",
          "type": "uint256"
        }
      ],
      "name": "secondwhitelistMint",
      "outputs": [],
      "stateMutability": "payable",
      "type": "function"
    },
    {
      "inputs": [],
      "name": "senderIsAdmin",
      "outputs": [
        {
          "internalType": "bool",
          "name": "",
          "type": "bool"
        }
      ],
      "stateMutability": "view",
      "type": "function"
    },
    {
      "inputs": [],
      "name": "senderIsMod",
      "outputs": [
        {
          "internalType": "bool",
          "name": "",
          "type": "bool"
        }
      ],
      "stateMutability": "view",
      "type": "function"
    },
    {
      "inputs": [
        {
          "internalType": "address",
          "name": "operator",
          "type": "address"
        },
        {
          "internalType": "bool",
          "name": "approved",
          "type": "bool"
        }
      ],
      "name": "setApprovalForAll",
      "outputs": [],
      "stateMutability": "nonpayable",
      "type": "function"
    },
    {
      "inputs": [
        {
          "internalType": "string",
          "name": "baseUri",
          "type": "string"
        }
      ],
      "name": "setBaseURI",
      "outputs": [],
      "stateMutability": "nonpayable",
      "type": "function"
    },
    {
      "inputs": [
        {
          "internalType": "string",
          "name": "tempUri",
          "type": "string"
        }
      ],
      "name": "setPlaceholderURI",
      "outputs": [],
      "stateMutability": "nonpayable",
      "type": "function"
    },
    {
      "inputs": [
        {
          "internalType": "uint256",
          "name": "_publicLimit",
          "type": "uint256"
        }
      ],
      "name": "setPublicLimit",
      "outputs": [],
      "stateMutability": "nonpayable",
      "type": "function"
    },
    {
      "inputs": [
        {
          "internalType": "uint256",
          "name": "_price",
          "type": "uint256"
        }
      ],
      "name": "setPublicPrice",
      "outputs": [],
      "stateMutability": "nonpayable",
      "type": "function"
    },
    {
      "inputs": [
        {
          "internalType": "uint256",
          "name": "_publicStartTime",
          "type": "uint256"
        },
        {
          "internalType": "uint256",
          "name": "_publicEndTime",
          "type": "uint256"
        }
      ],
      "name": "setPublicSaleTimes",
      "outputs": [],
      "stateMutability": "nonpayable",
      "type": "function"
    },
    {
      "inputs": [
        {
          "internalType": "uint256",
          "name": "_whitelistLimit",
          "type": "uint256"
        }
      ],
      "name": "setSecondWhitelistLimit",
      "outputs": [],
      "stateMutability": "nonpayable",
      "type": "function"
    },
    {
      "inputs": [
        {
          "internalType": "bytes32",
          "name": "root",
          "type": "bytes32"
        }
      ],
      "name": "setWhiteSecondlistMerkleRoot",
      "outputs": [],
      "stateMutability": "nonpayable",
      "type": "function"
    },
    {
      "inputs": [
        {
          "internalType": "uint256",
          "name": "_whitelistLimit",
          "type": "uint256"
        }
      ],
      "name": "setWhitelistLimit",
      "outputs": [],
      "stateMutability": "nonpayable",
      "type": "function"
    },
    {
      "inputs": [
        {
          "internalType": "bytes32",
          "name": "root",
          "type": "bytes32"
        }
      ],
      "name": "setWhitelistMerkleRoot",
      "outputs": [],
      "stateMutability": "nonpayable",
      "type": "function"
    },
    {
      "inputs": [
        {
          "internalType": "uint256",
          "name": "_whitelistStartTime",
          "type": "uint256"
        },
        {
          "internalType": "uint256",
          "name": "_whitelistEndTime",
          "type": "uint256"
        }
      ],
      "name": "setWhitelistTimes",
      "outputs": [],
      "stateMutability": "nonpayable",
      "type": "function"
    },
    {
      "inputs": [
        {
          "internalType": "bytes4",
          "name": "interfaceId",
          "type": "bytes4"
        }
      ],
      "name": "supportsInterface",
      "outputs": [
        {
          "internalType": "bool",
          "name": "",
          "type": "bool"
        }
      ],
      "stateMutability": "view",
      "type": "function"
    },
    {
      "inputs": [],
      "name": "symbol",
      "outputs": [
        {
          "internalType": "string",
          "name": "",
          "type": "string"
        }
      ],
      "stateMutability": "view",
      "type": "function"
    },
    {
      "inputs": [],
      "name": "timesFinalized",
      "outputs": [
        {
          "internalType": "bool",
          "name": "",
          "type": "bool"
        }
      ],
      "stateMutability": "view",
      "type": "function"
    },
    {
      "inputs": [],
      "name": "togglePublic",
      "outputs": [],
      "stateMutability": "nonpayable",
      "type": "function"
    },
    {
      "inputs": [],
      "name": "toggleReveal",
      "outputs": [],
      "stateMutability": "nonpayable",
      "type": "function"
    },
    {
      "inputs": [],
      "name": "toggleWhitelistSale",
      "outputs": [],
      "stateMutability": "nonpayable",
      "type": "function"
    },
    {
      "inputs": [
        {
          "internalType": "uint256",
          "name": "index",
          "type": "uint256"
        }
      ],
      "name": "tokenByIndex",
      "outputs": [
        {
          "internalType": "uint256",
          "name": "",
          "type": "uint256"
        }
      ],
      "stateMutability": "view",
      "type": "function"
    },
    {
      "inputs": [
        {
          "internalType": "address",
          "name": "owner",
          "type": "address"
        },
        {
          "internalType": "uint256",
          "name": "index",
          "type": "uint256"
        }
      ],
      "name": "tokenOfOwnerByIndex",
      "outputs": [
        {
          "internalType": "uint256",
          "name": "",
          "type": "uint256"
        }
      ],
      "stateMutability": "view",
      "type": "function"
    },
    {
      "inputs": [
        {
          "internalType": "uint256",
          "name": "id",
          "type": "uint256"
        }
      ],
      "name": "tokenURI",
      "outputs": [
        {
          "internalType": "string",
          "name": "",
          "type": "string"
        }
      ],
      "stateMutability": "view",
      "type": "function"
    },
    {
      "inputs": [],
      "name": "totalSupply",
      "outputs": [
        {
          "internalType": "uint256",
          "name": "",
          "type": "uint256"
        }
      ],
      "stateMutability": "view",
      "type": "function"
    },
    {
      "inputs": [
        {
          "internalType": "address",
          "name": "from",
          "type": "address"
        },
        {
          "internalType": "address",
          "name": "to",
          "type": "address"
        },
        {
          "internalType": "uint256",
          "name": "tokenId",
          "type": "uint256"
        }
      ],
      "name": "transferFrom",
      "outputs": [],
      "stateMutability": "nonpayable",
      "type": "function"
    },
    {
      "inputs": [
        {
          "internalType": "bytes32[]",
          "name": "_merkleProof",
          "type": "bytes32[]"
        },
        {
          "internalType": "address",
          "name": "addr",
          "type": "address"
        }
      ],
      "name": "verifyPeerWhitelist",
      "outputs": [
        {
          "internalType": "bool",
          "name": "",
          "type": "bool"
        }
      ],
      "stateMutability": "view",
      "type": "function"
    },
    {
      "inputs": [
        {
          "internalType": "bytes32[]",
          "name": "_merkleProof",
          "type": "bytes32[]"
        },
        {
          "internalType": "address",
          "name": "addr",
          "type": "address"
        }
      ],
      "name": "verifyWhitelist",
      "outputs": [
        {
          "internalType": "bool",
          "name": "",
          "type": "bool"
        }
      ],
      "stateMutability": "view",
      "type": "function"
    },
    {
      "inputs": [],
      "name": "whitelistEnd",
      "outputs": [
        {
          "internalType": "uint256",
          "name": "",
          "type": "uint256"
        }
      ],
      "stateMutability": "view",
      "type": "function"
    },
    {
      "inputs": [],
      "name": "whitelistLimit",
      "outputs": [
        {
          "internalType": "uint256",
          "name": "",
          "type": "uint256"
        }
      ],
      "stateMutability": "view",
      "type": "function"
    },
    {
      "inputs": [
        {
          "internalType": "bytes32[]",
          "name": "_merkleProof",
          "type": "bytes32[]"
        },
        {
          "internalType": "uint256",
          "name": "quantity",
          "type": "uint256"
        }
      ],
      "name": "whitelistMint",
      "outputs": [],
      "stateMutability": "payable",
      "type": "function"
    },
    {
      "inputs": [],
      "name": "whitelistStart",
      "outputs": [
        {
          "internalType": "uint256",
          "name": "",
          "type": "uint256"
        }
      ],
      "stateMutability": "view",
      "type": "function"
    },
    {
      "inputs": [],
      "name": "withdraw",
      "outputs": [],
      "stateMutability": "nonpayable",
      "type": "function"
    }
  ],
  "bytecode": "0x60a06040527fa49807205ce4d355092ef5a8a18f56e8913cf4a201fbe287825b095693c217756008557f950b8f2d7415defaee398bb4898e8e094a64c725873b81952b7ab9f08d70efb36009556000601060006101000a81548160ff0219169083151502179055506000601060016101000a81548160ff0219169083151502179055506000601060026101000a81548160ff0219169083151502179055506000601060036101000a81548160ff0219169083151502179055506000601060046101000a81548160ff0219169083151502179055506000601060056101000a81548160ff0219169083151502179055506000601060066101000a81548160ff021916908315150217905550610d05601155600160125560026013556014805566f52322698080006015553480156200013557600080fd5b5060405162006da538038062006da583398181016040528101906200015b919062000741565b6040518060400160405280600e81526020017f416264756374696f6e53717561640000000000000000000000000000000000008152506040518060400160405280600481526020017f41425351000000000000000000000000000000000000000000000000000000008152508160019080519060200190620001df92919062000454565b508060029080519060200190620001f892919062000454565b5050508373ffffffffffffffffffffffffffffffffffffffff1660808173ffffffffffffffffffffffffffffffffffffffff168152505082600a8190555081600b8190555080600f90805190602001906200025592919062000454565b5061012c426200026691906200080b565b601681905550620151806016546200027f91906200080b565b601781905550601754601881905550613840601854620002a091906200080b565b601981905550620002bb6000801b33620002d960201b60201c565b620002cf60085433620002d960201b60201c565b50505050620008cc565b620002eb8282620002ef60201b60201c565b5050565b620003018282620003e160201b60201c565b620003dd5760016007600084815260200190815260200160002060000160008373ffffffffffffffffffffffffffffffffffffffff1673ffffffffffffffffffffffffffffffffffffffff16815260200190815260200160002060006101000a81548160ff021916908315150217905550620003826200044c60201b60201c565b73ffffffffffffffffffffffffffffffffffffffff168173ffffffffffffffffffffffffffffffffffffffff16837f2f8788117e7eff1d82e926ec794901d17c78024a50270940304540a733656f0d60405160405180910390a45b5050565b60006007600084815260200190815260200160002060000160008373ffffffffffffffffffffffffffffffffffffffff1673ffffffffffffffffffffffffffffffffffffffff16815260200190815260200160002060009054906101000a900460ff16905092915050565b600033905090565b828054620004629062000897565b90600052602060002090601f016020900481019282620004865760008555620004d2565b82601f10620004a157805160ff1916838001178555620004d2565b82800160010185558215620004d2579182015b82811115620004d1578251825591602001919060010190620004b4565b5b509050620004e19190620004e5565b5090565b5b8082111562000500576000816000905550600101620004e6565b5090565b6000604051905090565b600080fd5b600080fd5b600073ffffffffffffffffffffffffffffffffffffffff82169050919050565b6000620005458262000518565b9050919050565b620005578162000538565b81146200056357600080fd5b50565b60008151905062000577816200054c565b92915050565b6000819050919050565b62000592816200057d565b81146200059e57600080fd5b50565b600081519050620005b28162000587565b92915050565b600080fd5b600080fd5b6000601f19601f8301169050919050565b7f4e487b7100000000000000000000000000000000000000000000000000000000600052604160045260246000fd5b6200060d82620005c2565b810181811067ffffffffffffffff821117156200062f576200062e620005d3565b5b80604052505050565b60006200064462000504565b905062000652828262000602565b919050565b600067ffffffffffffffff821115620006755762000674620005d3565b5b6200068082620005c2565b9050602081019050919050565b60005b83811015620006ad57808201518184015260208101905062000690565b83811115620006bd576000848401525b50505050565b6000620006da620006d48462000657565b62000638565b905082815260208101848484011115620006f957620006f8620005bd565b5b620007068482856200068d565b509392505050565b600082601f830112620007265762000725620005b8565b5b815162000738848260208601620006c3565b91505092915050565b600080600080608085870312156200075e576200075d6200050e565b5b60006200076e8782880162000566565b94505060206200078187828801620005a1565b93505060406200079487828801620005a1565b925050606085015167ffffffffffffffff811115620007b857620007b762000513565b5b620007c6878288016200070e565b91505092959194509250565b6000819050919050565b7f4e487b7100000000000000000000000000000000000000000000000000000000600052601160045260246000fd5b60006200081882620007d2565b91506200082583620007d2565b9250827fffffffffffffffffffffffffffffffffffffffffffffffffffffffffffffffff038211156200085d576200085c620007dc565b5b828201905092915050565b7f4e487b7100000000000000000000000000000000000000000000000000000000600052602260045260246000fd5b60006002820490506001821680620008b057607f821691505b602082108103620008c657620008c562000868565b5b50919050565b6080516164bd620008e86000396000611acd01526164bd6000f3fe6080604052600436106104265760003560e01c80638ba4cc3c11610229578063a5f4c6ff1161012e578063c87b56dd116100b6578063d547741f1161007a578063d547741f14610f8c578063e932406f14610fb5578063e985e9c514610fe0578063f4a560a51461101d578063f96c678c1461103457610426565b8063c87b56dd14610ec8578063cf9f8e2114610f05578063d23dc8d414610f30578063d2521ae814610f4c578063d4dd7b8114610f7557610426565b8063b98451cf116100fd578063b98451cf14610df7578063bd32fb6614610e22578063bfb6e0e714610e4b578063c627525514610e76578063c634b78e14610e9f57610426565b8063a5f4c6ff14610d4f578063a784476214610d7a578063b74771cb14610da5578063b88d4fde14610dce57610426565b806399c9c36d116101b1578063a0b3039011610180578063a0b3039014610c7c578063a1afe16814610ca7578063a217fddf14610cd0578063a22cb46514610cfb578063a4331d2d14610d2457610426565b806399c9c36d14610be15780639a19c7b014610c0c5780639dfde20114610c35578063a0712d6814610c6057610426565b806391d14854116101f857806391d1485414610b0e578063955e16af14610b4b57806395d89b4114610b74578063981d877114610b9f578063994d396914610bb657610426565b80638ba4cc3c14610a665780638d2c713a14610a8f5780638fd8aa9f14610aba5780639194370814610ae357610426565b806333289b521161032f57806355f804b3116102b7578063621d388c11610286578063621d388c1461096b5780636352211e1461099657806370a08231146109d357806375b238fc14610a1057806380ec11c614610a3b57610426565b806355f804b3146108fd57806356f07a3e1461092657806359eda1b51461093d5780635b8ad4291461095457610426565b806342842e0e116102fe57806342842e0e1461080457806345c0f5331461082d5780634f6ccce71461085857806351830227146108955780635597b79c146108c057610426565b806333289b52146107725780633574a2dd1461079b57806336568abe146107c45780633ccfd60b146107ed57610426565b80631e84c413116103b25780632904e6d9116103815780632904e6d91461069a5780632f2ff15d146106b65780632f745c59146106df578063302150e51461071c578063305ac3671461074757610426565b80631e84c413146105e0578063236376171461060b57806323b872dd14610634578063248a9ca31461065d57610426565b8063095ea7b3116103f9578063095ea7b3146104f95780630acae9a71461052257806318160ddd1461054d57806318ff357e1461057857806319cc02aa146105b557610426565b806301ffc9a71461042b57806306fdde031461046857806307d3633514610493578063081812fc146104bc575b600080fd5b34801561043757600080fd5b50610452600480360381019061044d9190614d7d565b61105d565b60405161045f9190614dc5565b60405180910390f35b34801561047457600080fd5b5061047d61106f565b60405161048a9190614e79565b60405180910390f35b34801561049f57600080fd5b506104ba60048036038101906104b59190614ed1565b611101565b005b3480156104c857600080fd5b506104e360048036038101906104de9190614ed1565b61116a565b6040516104f09190614f3f565b60405180910390f35b34801561050557600080fd5b50610520600480360381019061051b9190614f86565b6111e6565b005b34801561052e57600080fd5b506105376112f0565b6040516105449190614fd5565b60405180910390f35b34801561055957600080fd5b506105626112f6565b60405161056f9190614fd5565b60405180910390f35b34801561058457600080fd5b5061059f600480360381019061059a9190615055565b61134b565b6040516105ac9190614dc5565b60405180910390f35b3480156105c157600080fd5b506105ca611364565b6040516105d79190614dc5565b60405180910390f35b3480156105ec57600080fd5b506105f5611377565b6040516106029190614dc5565b60405180910390f35b34801561061757600080fd5b50610632600480360381019061062d9190614ed1565b6113af565b005b34801561064057600080fd5b5061065b600480360381019061065691906150b5565b611418565b005b34801561066957600080fd5b50610684600480360381019061067f919061513e565b611428565b604051610691919061517a565b60405180910390f35b6106b460048036038101906106af9190615195565b611448565b005b3480156106c257600080fd5b506106dd60048036038101906106d891906151f5565b61167a565b005b3480156106eb57600080fd5b5061070660048036038101906107019190614f86565b6116a3565b6040516107139190614fd5565b60405180910390f35b34801561072857600080fd5b506107316118a8565b60405161073e9190614fd5565b60405180910390f35b34801561075357600080fd5b5061075c6118ae565b6040516107699190614dc5565b60405180910390f35b34801561077e57600080fd5b5061079960048036038101906107949190615235565b6118c1565b005b3480156107a757600080fd5b506107c260048036038101906107bd9190615392565b61192f565b005b3480156107d057600080fd5b506107eb60048036038101906107e691906151f5565b6119fe565b005b3480156107f957600080fd5b50610802611a81565b005b34801561081057600080fd5b5061082b600480360381019061082691906150b5565b611b99565b005b34801561083957600080fd5b50610842611bb9565b60405161084f9190614fd5565b60405180910390f35b34801561086457600080fd5b5061087f600480360381019061087a9190614ed1565b611bbf565b60405161088c9190614fd5565b60405180910390f35b3480156108a157600080fd5b506108aa611d2f565b6040516108b79190614dc5565b60405180910390f35b3480156108cc57600080fd5b506108e760048036038101906108e29190615055565b611d42565b6040516108f49190614dc5565b60405180910390f35b34801561090957600080fd5b50610924600480360381019061091f9190615392565b611d5b565b005b34801561093257600080fd5b5061093b611e2a565b005b34801561094957600080fd5b50610952611efc565b005b34801561096057600080fd5b50610969611fdd565b005b34801561097757600080fd5b506109806120be565b60405161098d9190614dc5565b60405180910390f35b3480156109a257600080fd5b506109bd60048036038101906109b89190614ed1565b6120e5565b6040516109ca9190614f3f565b60405180910390f35b3480156109df57600080fd5b506109fa60048036038101906109f59190615235565b6120fb565b604051610a079190614fd5565b60405180910390f35b348015610a1c57600080fd5b50610a256121ca565b604051610a32919061517a565b60405180910390f35b348015610a4757600080fd5b50610a506121d0565b604051610a5d9190614fd5565b60405180910390f35b348015610a7257600080fd5b50610a8d6004803603810190610a889190614f86565b6121d6565b005b348015610a9b57600080fd5b50610aa46122f8565b604051610ab1919061517a565b60405180910390f35b348015610ac657600080fd5b50610ae16004803603810190610adc9190614ed1565b6122fe565b005b348015610aef57600080fd5b50610af86123f5565b604051610b059190614dc5565b60405180910390f35b348015610b1a57600080fd5b50610b356004803603810190610b3091906151f5565b612408565b604051610b429190614dc5565b60405180910390f35b348015610b5757600080fd5b50610b726004803603810190610b6d91906153db565b612473565b005b348015610b8057600080fd5b50610b8961253a565b604051610b969190614e79565b60405180910390f35b348015610bab57600080fd5b50610bb46125cc565b005b348015610bc257600080fd5b50610bcb6126ad565b604051610bd89190614fd5565b60405180910390f35b348015610bed57600080fd5b50610bf66126b3565b604051610c039190614fd5565b60405180910390f35b348015610c1857600080fd5b50610c336004803603810190610c2e9190615235565b6126b8565b005b348015610c4157600080fd5b50610c4a6126dd565b604051610c579190614fd5565b60405180910390f35b610c7a6004803603810190610c759190614ed1565b6126e3565b005b348015610c8857600080fd5b50610c91612829565b604051610c9e919061517a565b60405180910390f35b348015610cb357600080fd5b50610cce6004803603810190610cc991906153db565b61282f565b005b348015610cdc57600080fd5b50610ce56128f6565b604051610cf2919061517a565b60405180910390f35b348015610d0757600080fd5b50610d226004803603810190610d1d9190615447565b6128fd565b005b348015610d3057600080fd5b50610d39612a74565b604051610d469190614fd5565b60405180910390f35b348015610d5b57600080fd5b50610d64612a7a565b604051610d719190614fd5565b60405180910390f35b348015610d8657600080fd5b50610d8f612a80565b604051610d9c9190614dc5565b60405180910390f35b348015610db157600080fd5b50610dcc6004803603810190610dc7919061513e565b612a93565b005b348015610dda57600080fd5b50610df56004803603810190610df09190615528565b612b52565b005b348015610e0357600080fd5b50610e0c612ba5565b604051610e199190614dc5565b60405180910390f35b348015610e2e57600080fd5b50610e496004803603810190610e44919061513e565b612bdd565b005b348015610e5757600080fd5b50610e60612c9c565b604051610e6d9190614fd5565b60405180910390f35b348015610e8257600080fd5b50610e9d6004803603810190610e989190614ed1565b612ca2565b005b348015610eab57600080fd5b50610ec66004803603810190610ec19190615235565b612d0b565b005b348015610ed457600080fd5b50610eef6004803603810190610eea9190614ed1565b612d30565b604051610efc9190614e79565b60405180910390f35b348015610f1157600080fd5b50610f1a612e57565b604051610f279190614dc5565b60405180910390f35b610f4a6004803603810190610f459190615195565b612e6a565b005b348015610f5857600080fd5b50610f736004803603810190610f6e9190614ed1565b61309c565b005b348015610f8157600080fd5b50610f8a613105565b005b348015610f9857600080fd5b50610fb36004803603810190610fae91906151f5565b6131d7565b005b348015610fc157600080fd5b50610fca613200565b604051610fd7919061517a565b60405180910390f35b348015610fec57600080fd5b50611007600480360381019061100291906155ab565b613206565b6040516110149190614dc5565b60405180910390f35b34801561102957600080fd5b5061103261329a565b005b34801561104057600080fd5b5061105b60048036038101906110569190615235565b61336c565b005b6000611068826133da565b9050919050565b60606001805461107e9061561a565b80601f01602080910402602001604051908101604052809291908181526020018280546110aa9061561a565b80156110f75780601f106110cc576101008083540402835291602001916110f7565b820191906000526020600020905b8154815290600101906020018083116110da57829003601f168201915b5050505050905090565b61110e6000801b33612408565b80611121575061112060085433612408565b5b611160576040517f08c379a000000000000000000000000000000000000000000000000000000000815260040161115790615697565b60405180910390fd5b8060138190555050565b600061117582613454565b6111ab576040517fcf4700e400000000000000000000000000000000000000000000000000000000815260040160405180910390fd5b6005600083815260200190815260200160002060009054906101000a900473ffffffffffffffffffffffffffffffffffffffff169050919050565b60006111f1826120e5565b90508073ffffffffffffffffffffffffffffffffffffffff168373ffffffffffffffffffffffffffffffffffffffff1603611258576040517f943f7b8c00000000000000000000000000000000000000000000000000000000815260040160405180910390fd5b8073ffffffffffffffffffffffffffffffffffffffff166112776134bc565b73ffffffffffffffffffffffffffffffffffffffff16141580156112a957506112a7816112a26134bc565b613206565b155b156112e0576040517fcfb3b94200000000000000000000000000000000000000000000000000000000815260040160405180910390fd5b6112eb8383836134c4565b505050565b60195481565b60008060109054906101000a90046fffffffffffffffffffffffffffffffff1660008054906101000a90046fffffffffffffffffffffffffffffffff16036fffffffffffffffffffffffffffffffff16905090565b600061135b8484600a5485613576565b90509392505050565b601060039054906101000a900460ff1681565b6000601060069054906101000a900460ff161561139757600190506113ac565b601854421180156113a9575060195442105b90505b90565b6113bc6000801b33612408565b806113cf57506113ce60085433612408565b5b61140e576040517f08c379a000000000000000000000000000000000000000000000000000000000815260040161140590615697565b60405180910390fd5b8060148190555050565b6114238383836135fb565b505050565b600060076000838152602001908152602001600020600101549050919050565b611450612ba5565b61148f576040517f08c379a000000000000000000000000000000000000000000000000000000000815260040161148690615703565b60405180910390fd5b61149a83833361134b565b6114d9576040517f08c379a00000000000000000000000000000000000000000000000000000000081526004016114d09061576f565b60405180910390fd5b601154816114e56112f6565b6114ef91906157be565b1115611530576040517f08c379a000000000000000000000000000000000000000000000000000000000815260040161152790615860565b60405180910390fd5b60125481600c60003373ffffffffffffffffffffffffffffffffffffffff1673ffffffffffffffffffffffffffffffffffffffff1681526020019081526020016000205461157e91906157be565b11156115bf576040517f08c379a00000000000000000000000000000000000000000000000000000000081526004016115b6906158cc565b60405180910390fd5b6000601554826115cf91906158ec565b905080341015611614576040517f08c379a000000000000000000000000000000000000000000000000000000000815260040161160b90615992565b60405180910390fd5b81600c60003373ffffffffffffffffffffffffffffffffffffffff1673ffffffffffffffffffffffffffffffffffffffff168152602001908152602001600020600082825461166391906157be565b925050819055506116743383613b16565b50505050565b61168382611428565b6116948161168f6134bc565b613b34565b61169e8383613bd1565b505050565b60006116ae836120fb565b82106116e6576040517f0ddac30e00000000000000000000000000000000000000000000000000000000815260040160405180910390fd5b60008060009054906101000a90046fffffffffffffffffffffffffffffffff166fffffffffffffffffffffffffffffffff16905060008060005b8381101561189c576000600360008381526020019081526020016000206040518060600160405290816000820160009054906101000a900473ffffffffffffffffffffffffffffffffffffffff1673ffffffffffffffffffffffffffffffffffffffff1673ffffffffffffffffffffffffffffffffffffffff1681526020016000820160149054906101000a900467ffffffffffffffff1667ffffffffffffffff1667ffffffffffffffff16815260200160008201601c9054906101000a900460ff16151515158152505090508060400151156117fd575061188f565b600073ffffffffffffffffffffffffffffffffffffffff16816000015173ffffffffffffffffffffffffffffffffffffffff161461183d57806000015192505b8773ffffffffffffffffffffffffffffffffffffffff168373ffffffffffffffffffffffffffffffffffffffff160361188d578684036118845781955050505050506118a2565b83806001019450505b505b8080600101915050611720565b50600080fd5b92915050565b60125481565b601060009054906101000a900460ff1681565b6118ce6000801b33612408565b806118e157506118e060085433612408565b5b611920576040517f08c379a000000000000000000000000000000000000000000000000000000000815260040161191790615697565b60405180910390fd5b61192c60095482613cb2565b50565b61193c6000801b33612408565b8061194f575061194e60085433612408565b5b61198e576040517f08c379a000000000000000000000000000000000000000000000000000000000815260040161198590615697565b60405180910390fd5b60001515601060019054906101000a900460ff161515146119e4576040517f08c379a00000000000000000000000000000000000000000000000000000000081526004016119db906159fe565b60405180910390fd5b80600f90805190602001906119fa929190614c2b565b5050565b611a066134bc565b73ffffffffffffffffffffffffffffffffffffffff168173ffffffffffffffffffffffffffffffffffffffff1614611a73576040517f08c379a0000000000000000000000000000000000000000000000000000000008152600401611a6a90615a90565b60405180910390fd5b611a7d8282613cb2565b5050565b600047905060008111611ac9576040517f08c379a0000000000000000000000000000000000000000000000000000000008152600401611ac090615afc565b60405180910390fd5b60007f000000000000000000000000000000000000000000000000000000000000000073ffffffffffffffffffffffffffffffffffffffff1682604051611b0f90615b4d565b60006040518083038185875af1925050503d8060008114611b4c576040519150601f19603f3d011682016040523d82523d6000602084013e611b51565b606091505b5050905080611b95576040517f08c379a0000000000000000000000000000000000000000000000000000000008152600401611b8c90615bae565b60405180910390fd5b5050565b611bb483838360405180602001604052806000815250612b52565b505050565b60115481565b60008060008054906101000a90046fffffffffffffffffffffffffffffffff166fffffffffffffffffffffffffffffffff1690506000805b82811015611cf7576000600360008381526020019081526020016000206040518060600160405290816000820160009054906101000a900473ffffffffffffffffffffffffffffffffffffffff1673ffffffffffffffffffffffffffffffffffffffff1673ffffffffffffffffffffffffffffffffffffffff1681526020016000820160149054906101000a900467ffffffffffffffff1667ffffffffffffffff1667ffffffffffffffff16815260200160008201601c9054906101000a900460ff16151515158152505090508060400151611ce957858303611ce05781945050505050611d2a565b82806001019350505b508080600101915050611bf7565b506040517fa723001c00000000000000000000000000000000000000000000000000000000815260040160405180910390fd5b919050565b601060049054906101000a900460ff1681565b6000611d528484600b5485613576565b90509392505050565b611d686000801b33612408565b80611d7b5750611d7a60085433612408565b5b611dba576040517f08c379a0000000000000000000000000000000000000000000000000000000008152600401611db190615697565b60405180910390fd5b60001515601060019054906101000a900460ff16151514611e10576040517f08c379a0000000000000000000000000000000000000000000000000000000008152600401611e07906159fe565b60405180910390fd5b80600e9080519060200190611e26929190614c2b565b5050565b611e376000801b33612408565b80611e4a5750611e4960085433612408565b5b611e89576040517f08c379a0000000000000000000000000000000000000000000000000000000008152600401611e8090615697565b60405180910390fd5b60001515601060029054906101000a900460ff16151514611edf576040517f08c379a0000000000000000000000000000000000000000000000000000000008152600401611ed690615c1a565b60405180910390fd5b6001601060026101000a81548160ff021916908315150217905550565b611f096000801b33612408565b80611f1c5750611f1b60085433612408565b5b611f5b576040517f08c379a0000000000000000000000000000000000000000000000000000000008152600401611f5290615697565b60405180910390fd5b60001515601060029054906101000a900460ff16151514611fb1576040517f08c379a0000000000000000000000000000000000000000000000000000000008152600401611fa890615c1a565b60405180910390fd5b601060059054906101000a900460ff1615601060056101000a81548160ff021916908315150217905550565b611fea6000801b33612408565b80611ffd5750611ffc60085433612408565b5b61203c576040517f08c379a000000000000000000000000000000000000000000000000000000000815260040161203390615697565b60405180910390fd5b60001515601060019054906101000a900460ff16151514612092576040517f08c379a0000000000000000000000000000000000000000000000000000000008152600401612089906159fe565b60405180910390fd5b601060049054906101000a900460ff1615601060046101000a81548160ff021916908315150217905550565b60006120cc60085433612408565b806120e057506120df6000801b33612408565b5b905090565b60006120f082613d94565b600001519050919050565b60008073ffffffffffffffffffffffffffffffffffffffff168273ffffffffffffffffffffffffffffffffffffffff1603612162576040517f8f4eb60400000000000000000000000000000000000000000000000000000000815260040160405180910390fd5b600460008373ffffffffffffffffffffffffffffffffffffffff1673ffffffffffffffffffffffffffffffffffffffff16815260200190815260200160002060000160009054906101000a900467ffffffffffffffff1667ffffffffffffffff169050919050565b60085481565b60135481565b6121e36000801b33612408565b806121f657506121f560085433612408565b5b612235576040517f08c379a000000000000000000000000000000000000000000000000000000000815260040161222c90615697565b60405180910390fd5b60001515601060039054906101000a900460ff1615151461228b576040517f08c379a000000000000000000000000000000000000000000000000000000000815260040161228290615c86565b60405180910390fd5b60c88111156122cf576040517f08c379a00000000000000000000000000000000000000000000000000000000081526004016122c690615cf2565b60405180910390fd5b6001601060036101000a81548160ff0219169083151502179055506122f48282613b16565b5050565b600b5481565b61230b6000801b33612408565b8061231e575061231d60085433612408565b5b61235d576040517f08c379a000000000000000000000000000000000000000000000000000000000815260040161235490615697565b60405180910390fd5b60115481106123a1576040517f08c379a000000000000000000000000000000000000000000000000000000000815260040161239890615d5e565b60405180910390fd5b6123a96112f6565b8110156123eb576040517f08c379a00000000000000000000000000000000000000000000000000000000081526004016123e290615dca565b60405180910390fd5b8060118190555050565b601060019054906101000a900460ff1681565b60006007600084815260200190815260200160002060000160008373ffffffffffffffffffffffffffffffffffffffff1673ffffffffffffffffffffffffffffffffffffffff16815260200190815260200160002060009054906101000a900460ff16905092915050565b6124806000801b33612408565b80612493575061249260085433612408565b5b6124d2576040517f08c379a00000000000000000000000000000000000000000000000000000000081526004016124c990615697565b60405180910390fd5b60001515601060029054906101000a900460ff16151514612528576040517f08c379a000000000000000000000000000000000000000000000000000000000815260040161251f90615c1a565b60405180910390fd5b81601881905550806019819055505050565b6060600280546125499061561a565b80601f01602080910402602001604051908101604052809291908181526020018280546125759061561a565b80156125c25780601f10612597576101008083540402835291602001916125c2565b820191906000526020600020905b8154815290600101906020018083116125a557829003601f168201915b5050505050905090565b6125d96000801b33612408565b806125ec57506125eb60085433612408565b5b61262b576040517f08c379a000000000000000000000000000000000000000000000000000000000815260040161262290615697565b60405180910390fd5b60001515601060029054906101000a900460ff16151514612681576040517f08c379a000000000000000000000000000000000000000000000000000000000815260040161267890615c1a565b60405180910390fd5b601060069054906101000a900460ff1615601060066101000a81548160ff021916908315150217905550565b60165481565b60c881565b6000801b6126cd816126c86134bc565b613b34565b6126d960085483613cb2565b5050565b60155481565b6126eb611377565b61272a576040517f08c379a000000000000000000000000000000000000000000000000000000000815260040161272190615e36565b60405180910390fd5b60145481111561276f576040517f08c379a000000000000000000000000000000000000000000000000000000000815260040161276690615ea2565b60405180910390fd5b6011548161277b6112f6565b61278591906157be565b11156127c6576040517f08c379a00000000000000000000000000000000000000000000000000000000081526004016127bd90615860565b60405180910390fd5b6000601554826127d691906158ec565b90508034101561281b576040517f08c379a000000000000000000000000000000000000000000000000000000000815260040161281290615992565b60405180910390fd5b6128253383613b16565b5050565b600a5481565b61283c6000801b33612408565b8061284f575061284e60085433612408565b5b61288e576040517f08c379a000000000000000000000000000000000000000000000000000000000815260040161288590615697565b60405180910390fd5b60001515601060029054906101000a900460ff161515146128e4576040517f08c379a00000000000000000000000000000000000000000000000000000000081526004016128db90615c1a565b60405180910390fd5b81601681905550806017819055505050565b6000801b81565b6129056134bc565b73ffffffffffffffffffffffffffffffffffffffff168273ffffffffffffffffffffffffffffffffffffffff1603612969576040517fb06307db00000000000000000000000000000000000000000000000000000000815260040160405180910390fd5b80600660006129766134bc565b73ffffffffffffffffffffffffffffffffffffffff1673ffffffffffffffffffffffffffffffffffffffff16815260200190815260200160002060008473ffffffffffffffffffffffffffffffffffffffff1673ffffffffffffffffffffffffffffffffffffffff16815260200190815260200160002060006101000a81548160ff0219169083151502179055508173ffffffffffffffffffffffffffffffffffffffff16612a236134bc565b73ffffffffffffffffffffffffffffffffffffffff167f17307eab39ab6107e8899845ad3d59bd9653f200f220920489ca2b5937696c3183604051612a689190614dc5565b60405180910390a35050565b60145481565b60185481565b6000612a8e60095433612408565b905090565b612aa06000801b33612408565b80612ab35750612ab260085433612408565b5b612af2576040517f08c379a0000000000000000000000000000000000000000000000000000000008152600401612ae990615697565b60405180910390fd5b60001515601060009054906101000a900460ff16151514612b48576040517f08c379a0000000000000000000000000000000000000000000000000000000008152600401612b3f90615f0e565b60405180910390fd5b80600b8190555050565b612b5d8484846135fb565b612b698484848461403c565b612b9f576040517fd1a57ed600000000000000000000000000000000000000000000000000000000815260040160405180910390fd5b50505050565b6000601060059054906101000a900460ff1615612bc55760019050612bda565b60165442118015612bd7575060175442105b90505b90565b612bea6000801b33612408565b80612bfd5750612bfc60085433612408565b5b612c3c576040517f08c379a0000000000000000000000000000000000000000000000000000000008152600401612c3390615697565b60405180910390fd5b60001515601060009054906101000a900460ff16151514612c92576040517f08c379a0000000000000000000000000000000000000000000000000000000008152600401612c8990615f0e565b60405180910390fd5b80600a8190555050565b60175481565b612caf6000801b33612408565b80612cc25750612cc160085433612408565b5b612d01576040517f08c379a0000000000000000000000000000000000000000000000000000000008152600401612cf890615697565b60405180910390fd5b8060158190555050565b6000801b612d2081612d1b6134bc565b613b34565b612d2c60085483613bd1565b5050565b6060612d3b82613454565b612d7a576040517f08c379a0000000000000000000000000000000000000000000000000000000008152600401612d7190615f7a565b60405180910390fd5b601060049054906101000a900460ff16612e1e57600f8054612d9b9061561a565b80601f0160208091040260200160405190810160405280929190818152602001828054612dc79061561a565b8015612e145780601f10612de957610100808354040283529160200191612e14565b820191906000526020600020905b815481529060010190602001808311612df757829003601f168201915b5050505050612e50565b612e266141ba565b612e2f8361424c565b604051602001612e40929190616022565b6040516020818303038152906040525b9050919050565b601060029054906101000a900460ff1681565b612e72612ba5565b612eb1576040517f08c379a0000000000000000000000000000000000000000000000000000000008152600401612ea890615703565b60405180910390fd5b612ebc838333611d42565b612efb576040517f08c379a0000000000000000000000000000000000000000000000000000000008152600401612ef29061576f565b60405180910390fd5b60115481612f076112f6565b612f1191906157be565b1115612f52576040517f08c379a0000000000000000000000000000000000000000000000000000000008152600401612f4990615860565b60405180910390fd5b60135481600c60003373ffffffffffffffffffffffffffffffffffffffff1673ffffffffffffffffffffffffffffffffffffffff16815260200190815260200160002054612fa091906157be565b1115612fe1576040517f08c379a0000000000000000000000000000000000000000000000000000000008152600401612fd8906158cc565b60405180910390fd5b600060155482612ff191906158ec565b905080341015613036576040517f08c379a000000000000000000000000000000000000000000000000000000000815260040161302d90615992565b60405180910390fd5b81600c60003373ffffffffffffffffffffffffffffffffffffffff1673ffffffffffffffffffffffffffffffffffffffff168152602001908152602001600020600082825461308591906157be565b925050819055506130963383613b16565b50505050565b6130a96000801b33612408565b806130bc57506130bb60085433612408565b5b6130fb576040517f08c379a00000000000000000000000000000000000000000000000000000000081526004016130f290615697565b60405180910390fd5b8060128190555050565b6131126000801b33612408565b80613125575061312460085433612408565b5b613164576040517f08c379a000000000000000000000000000000000000000000000000000000000815260040161315b90615697565b60405180910390fd5b60001515601060009054906101000a900460ff161515146131ba576040517f08c379a00000000000000000000000000000000000000000000000000000000081526004016131b190615f0e565b60405180910390fd5b6001601060006101000a81548160ff021916908315150217905550565b6131e082611428565b6131f1816131ec6134bc565b613b34565b6131fb8383613cb2565b505050565b60095481565b6000600660008473ffffffffffffffffffffffffffffffffffffffff1673ffffffffffffffffffffffffffffffffffffffff16815260200190815260200160002060008373ffffffffffffffffffffffffffffffffffffffff1673ffffffffffffffffffffffffffffffffffffffff16815260200190815260200160002060009054906101000a900460ff16905092915050565b6132a76000801b33612408565b806132ba57506132b960085433612408565b5b6132f9576040517f08c379a00000000000000000000000000000000000000000000000000000000081526004016132f090615697565b60405180910390fd5b60001515601060019054906101000a900460ff1615151461334f576040517f08c379a0000000000000000000000000000000000000000000000000000000008152600401613346906159fe565b60405180910390fd5b6001601060016101000a81548160ff021916908315150217905550565b6133796000801b33612408565b8061338c575061338b60085433612408565b5b6133cb576040517f08c379a00000000000000000000000000000000000000000000000000000000081526004016133c290615697565b60405180910390fd5b6133d760095482613bd1565b50565b60007f7965db0b000000000000000000000000000000000000000000000000000000007bffffffffffffffffffffffffffffffffffffffffffffffffffffffff1916827bffffffffffffffffffffffffffffffffffffffffffffffffffffffff1916148061344d575061344c826143ac565b5b9050919050565b60008060009054906101000a90046fffffffffffffffffffffffffffffffff166fffffffffffffffffffffffffffffffff16821080156134b5575060036000838152602001908152602001600020600001601c9054906101000a900460ff16155b9050919050565b600033905090565b826005600084815260200190815260200160002060006101000a81548173ffffffffffffffffffffffffffffffffffffffff021916908373ffffffffffffffffffffffffffffffffffffffff160217905550818373ffffffffffffffffffffffffffffffffffffffff168273ffffffffffffffffffffffffffffffffffffffff167f8c5be1e5ebec7d5bd14f71427d1e84f3dd0314c0f7b2291e5b200ac8c7c3b92560405160405180910390a4505050565b6000600115156135ee868680806020026020016040519081016040528093929190818152602001838360200280828437600081840152601f19601f8201169050808301925050505050505085856040516020016135d39190616099565b604051602081830303815290604052805190602001206144f6565b1515149050949350505050565b600061360682613d94565b90506000816000015173ffffffffffffffffffffffffffffffffffffffff1661362d6134bc565b73ffffffffffffffffffffffffffffffffffffffff161480613660575061365f826000015161365a6134bc565b613206565b5b806136a5575061366e6134bc565b73ffffffffffffffffffffffffffffffffffffffff1661368d8461116a565b73ffffffffffffffffffffffffffffffffffffffff16145b9050806136de576040517f59c896be00000000000000000000000000000000000000000000000000000000815260040160405180910390fd5b8473ffffffffffffffffffffffffffffffffffffffff16826000015173ffffffffffffffffffffffffffffffffffffffff1614613747576040517fa114810000000000000000000000000000000000000000000000000000000000815260040160405180910390fd5b600073ffffffffffffffffffffffffffffffffffffffff168473ffffffffffffffffffffffffffffffffffffffff16036137ad576040517fea553b3400000000000000000000000000000000000000000000000000000000815260040160405180910390fd5b6137ba858585600161450d565b6137ca60008484600001516134c4565b6001600460008773ffffffffffffffffffffffffffffffffffffffff1673ffffffffffffffffffffffffffffffffffffffff16815260200190815260200160002060000160008282829054906101000a900467ffffffffffffffff160392506101000a81548167ffffffffffffffff021916908367ffffffffffffffff1602179055506001600460008673ffffffffffffffffffffffffffffffffffffffff1673ffffffffffffffffffffffffffffffffffffffff16815260200190815260200160002060000160008282829054906101000a900467ffffffffffffffff160192506101000a81548167ffffffffffffffff021916908367ffffffffffffffff160217905550836003600085815260200190815260200160002060000160006101000a81548173ffffffffffffffffffffffffffffffffffffffff021916908373ffffffffffffffffffffffffffffffffffffffff160217905550426003600085815260200190815260200160002060000160146101000a81548167ffffffffffffffff021916908367ffffffffffffffff1602179055506000600184019050600073ffffffffffffffffffffffffffffffffffffffff166003600083815260200190815260200160002060000160009054906101000a900473ffffffffffffffffffffffffffffffffffffffff1673ffffffffffffffffffffffffffffffffffffffff1603613aa65760008054906101000a90046fffffffffffffffffffffffffffffffff166fffffffffffffffffffffffffffffffff16811015613aa55782600001516003600083815260200190815260200160002060000160006101000a81548173ffffffffffffffffffffffffffffffffffffffff021916908373ffffffffffffffffffffffffffffffffffffffff16021790555082602001516003600083815260200190815260200160002060000160146101000a81548167ffffffffffffffff021916908367ffffffffffffffff1602179055505b5b50828473ffffffffffffffffffffffffffffffffffffffff168673ffffffffffffffffffffffffffffffffffffffff167fddf252ad1be2c89b69c2b068fc378daa952ba7f163c4a11628f55a4df523b3ef60405160405180910390a4613b0f8585856001614513565b5050505050565b613b30828260405180602001604052806000815250614519565b5050565b613b3e8282612408565b613bcd57613b638173ffffffffffffffffffffffffffffffffffffffff16601461452b565b613b718360001c602061452b565b604051602001613b8292919061614c565b6040516020818303038152906040526040517f08c379a0000000000000000000000000000000000000000000000000000000008152600401613bc49190614e79565b60405180910390fd5b5050565b613bdb8282612408565b613cae5760016007600084815260200190815260200160002060000160008373ffffffffffffffffffffffffffffffffffffffff1673ffffffffffffffffffffffffffffffffffffffff16815260200190815260200160002060006101000a81548160ff021916908315150217905550613c536134bc565b73ffffffffffffffffffffffffffffffffffffffff168173ffffffffffffffffffffffffffffffffffffffff16837f2f8788117e7eff1d82e926ec794901d17c78024a50270940304540a733656f0d60405160405180910390a45b5050565b613cbc8282612408565b15613d905760006007600084815260200190815260200160002060000160008373ffffffffffffffffffffffffffffffffffffffff1673ffffffffffffffffffffffffffffffffffffffff16815260200190815260200160002060006101000a81548160ff021916908315150217905550613d356134bc565b73ffffffffffffffffffffffffffffffffffffffff168173ffffffffffffffffffffffffffffffffffffffff16837ff6391f5c32d9c69d2a47ea670b442974b53935d1edc7fd64eb21e047a839171b60405160405180910390a45b5050565b613d9c614cb1565b600082905060008054906101000a90046fffffffffffffffffffffffffffffffff166fffffffffffffffffffffffffffffffff16811015614005576000600360008381526020019081526020016000206040518060600160405290816000820160009054906101000a900473ffffffffffffffffffffffffffffffffffffffff1673ffffffffffffffffffffffffffffffffffffffff1673ffffffffffffffffffffffffffffffffffffffff1681526020016000820160149054906101000a900467ffffffffffffffff1667ffffffffffffffff1667ffffffffffffffff16815260200160008201601c9054906101000a900460ff1615151515815250509050806040015161400357600073ffffffffffffffffffffffffffffffffffffffff16816000015173ffffffffffffffffffffffffffffffffffffffff1614613ee7578092505050614037565b5b60011561400257818060019003925050600360008381526020019081526020016000206040518060600160405290816000820160009054906101000a900473ffffffffffffffffffffffffffffffffffffffff1673ffffffffffffffffffffffffffffffffffffffff1673ffffffffffffffffffffffffffffffffffffffff1681526020016000820160149054906101000a900467ffffffffffffffff1667ffffffffffffffff1667ffffffffffffffff16815260200160008201601c9054906101000a900460ff1615151515815250509050600073ffffffffffffffffffffffffffffffffffffffff16816000015173ffffffffffffffffffffffffffffffffffffffff1614613ffd578092505050614037565b613ee8565b5b505b6040517fdf2d9b4200000000000000000000000000000000000000000000000000000000815260040160405180910390fd5b919050565b600061405d8473ffffffffffffffffffffffffffffffffffffffff16614767565b156141ad578373ffffffffffffffffffffffffffffffffffffffff1663150b7a026140866134bc565b8786866040518563ffffffff1660e01b81526004016140a894939291906161db565b6020604051808303816000875af19250505080156140e457506040513d601f19601f820116820180604052508101906140e1919061623c565b60015b61415d573d8060008114614114576040519150601f19603f3d011682016040523d82523d6000602084013e614119565b606091505b506000815103614155576040517fd1a57ed600000000000000000000000000000000000000000000000000000000815260040160405180910390fd5b805181602001fd5b63150b7a0260e01b7bffffffffffffffffffffffffffffffffffffffffffffffffffffffff1916817bffffffffffffffffffffffffffffffffffffffffffffffffffffffff1916149150506141b2565b600190505b949350505050565b6060600e80546141c99061561a565b80601f01602080910402602001604051908101604052809291908181526020018280546141f59061561a565b80156142425780601f1061421757610100808354040283529160200191614242565b820191906000526020600020905b81548152906001019060200180831161422557829003601f168201915b5050505050905090565b606060008203614293576040518060400160405280600181526020017f300000000000000000000000000000000000000000000000000000000000000081525090506143a7565b600082905060005b600082146142c55780806142ae90616269565b915050600a826142be91906162e0565b915061429b565b60008167ffffffffffffffff8111156142e1576142e0615267565b5b6040519080825280601f01601f1916602001820160405280156143135781602001600182028036833780820191505090505b5090505b600085146143a05760018261432c9190616311565b9150600a8561433b9190616345565b603061434791906157be565b60f81b81838151811061435d5761435c616376565b5b60200101907effffffffffffffffffffffffffffffffffffffffffffffffffffffffffffff1916908160001a905350600a8561439991906162e0565b9450614317565b8093505050505b919050565b60007f80ac58cd000000000000000000000000000000000000000000000000000000007bffffffffffffffffffffffffffffffffffffffffffffffffffffffff1916827bffffffffffffffffffffffffffffffffffffffffffffffffffffffff1916148061447757507f5b5e139f000000000000000000000000000000000000000000000000000000007bffffffffffffffffffffffffffffffffffffffffffffffffffffffff1916827bffffffffffffffffffffffffffffffffffffffffffffffffffffffff1916145b806144df57507f780e9d63000000000000000000000000000000000000000000000000000000007bffffffffffffffffffffffffffffffffffffffffffffffffffffffff1916827bffffffffffffffffffffffffffffffffffffffffffffffffffffffff1916145b806144ef57506144ee8261477a565b5b9050919050565b60008261450385846147e4565b1490509392505050565b50505050565b50505050565b6145268383836001614897565b505050565b60606000600283600261453e91906158ec565b61454891906157be565b67ffffffffffffffff81111561456157614560615267565b5b6040519080825280601f01601f1916602001820160405280156145935781602001600182028036833780820191505090505b5090507f3000000000000000000000000000000000000000000000000000000000000000816000815181106145cb576145ca616376565b5b60200101907effffffffffffffffffffffffffffffffffffffffffffffffffffffffffffff1916908160001a9053507f78000000000000000000000000000000000000000000000000000000000000008160018151811061462f5761462e616376565b5b60200101907effffffffffffffffffffffffffffffffffffffffffffffffffffffffffffff1916908160001a9053506000600184600261466f91906158ec565b61467991906157be565b90505b6001811115614719577f3031323334353637383961626364656600000000000000000000000000000000600f8616601081106146bb576146ba616376565b5b1a60f81b8282815181106146d2576146d1616376565b5b60200101907effffffffffffffffffffffffffffffffffffffffffffffffffffffffffffff1916908160001a905350600485901c945080614712906163a5565b905061467c565b506000841461475d576040517f08c379a00000000000000000000000000000000000000000000000000000000081526004016147549061641a565b60405180910390fd5b8091505092915050565b600080823b905060008111915050919050565b60007f01ffc9a7000000000000000000000000000000000000000000000000000000007bffffffffffffffffffffffffffffffffffffffffffffffffffffffff1916827bffffffffffffffffffffffffffffffffffffffffffffffffffffffff1916149050919050565b60008082905060005b845181101561488c57600085828151811061480b5761480a616376565b5b6020026020010151905080831161484c57828160405160200161482f92919061645b565b604051602081830303815290604052805190602001209250614878565b808360405160200161485f92919061645b565b6040516020818303038152906040528051906020012092505b50808061488490616269565b9150506147ed565b508091505092915050565b60008060009054906101000a90046fffffffffffffffffffffffffffffffff166fffffffffffffffffffffffffffffffff169050600073ffffffffffffffffffffffffffffffffffffffff168573ffffffffffffffffffffffffffffffffffffffff1603614931576040517f2e07630000000000000000000000000000000000000000000000000000000000815260040160405180910390fd5b6000840361496b576040517fb562e8dd00000000000000000000000000000000000000000000000000000000815260040160405180910390fd5b614978600086838761450d565b83600460008773ffffffffffffffffffffffffffffffffffffffff1673ffffffffffffffffffffffffffffffffffffffff16815260200190815260200160002060000160008282829054906101000a900467ffffffffffffffff160192506101000a81548167ffffffffffffffff021916908367ffffffffffffffff16021790555083600460008773ffffffffffffffffffffffffffffffffffffffff1673ffffffffffffffffffffffffffffffffffffffff16815260200190815260200160002060000160088282829054906101000a900467ffffffffffffffff160192506101000a81548167ffffffffffffffff021916908367ffffffffffffffff160217905550846003600083815260200190815260200160002060000160006101000a81548173ffffffffffffffffffffffffffffffffffffffff021916908373ffffffffffffffffffffffffffffffffffffffff160217905550426003600083815260200190815260200160002060000160146101000a81548167ffffffffffffffff021916908367ffffffffffffffff160217905550600081905060005b85811015614bdd57818773ffffffffffffffffffffffffffffffffffffffff16600073ffffffffffffffffffffffffffffffffffffffff167fddf252ad1be2c89b69c2b068fc378daa952ba7f163c4a11628f55a4df523b3ef60405160405180910390a4838015614b915750614b8f600088848861403c565b155b15614bc8576040517fd1a57ed600000000000000000000000000000000000000000000000000000000815260040160405180910390fd5b81806001019250508080600101915050614b16565b50806000806101000a8154816fffffffffffffffffffffffffffffffff02191690836fffffffffffffffffffffffffffffffff16021790555050614c246000868387614513565b5050505050565b828054614c379061561a565b90600052602060002090601f016020900481019282614c595760008555614ca0565b82601f10614c7257805160ff1916838001178555614ca0565b82800160010185558215614ca0579182015b82811115614c9f578251825591602001919060010190614c84565b5b509050614cad9190614cf4565b5090565b6040518060600160405280600073ffffffffffffffffffffffffffffffffffffffff168152602001600067ffffffffffffffff1681526020016000151581525090565b5b80821115614d0d576000816000905550600101614cf5565b5090565b6000604051905090565b600080fd5b600080fd5b60007fffffffff0000000000000000000000000000000000000000000000000000000082169050919050565b614d5a81614d25565b8114614d6557600080fd5b50565b600081359050614d7781614d51565b92915050565b600060208284031215614d9357614d92614d1b565b5b6000614da184828501614d68565b91505092915050565b60008115159050919050565b614dbf81614daa565b82525050565b6000602082019050614dda6000830184614db6565b92915050565b600081519050919050565b600082825260208201905092915050565b60005b83811015614e1a578082015181840152602081019050614dff565b83811115614e29576000848401525b50505050565b6000601f19601f8301169050919050565b6000614e4b82614de0565b614e558185614deb565b9350614e65818560208601614dfc565b614e6e81614e2f565b840191505092915050565b60006020820190508181036000830152614e938184614e40565b905092915050565b6000819050919050565b614eae81614e9b565b8114614eb957600080fd5b50565b600081359050614ecb81614ea5565b92915050565b600060208284031215614ee757614ee6614d1b565b5b6000614ef584828501614ebc565b91505092915050565b600073ffffffffffffffffffffffffffffffffffffffff82169050919050565b6000614f2982614efe565b9050919050565b614f3981614f1e565b82525050565b6000602082019050614f546000830184614f30565b92915050565b614f6381614f1e565b8114614f6e57600080fd5b50565b600081359050614f8081614f5a565b92915050565b60008060408385031215614f9d57614f9c614d1b565b5b6000614fab85828601614f71565b9250506020614fbc85828601614ebc565b9150509250929050565b614fcf81614e9b565b82525050565b6000602082019050614fea6000830184614fc6565b92915050565b600080fd5b600080fd5b600080fd5b60008083601f84011261501557615014614ff0565b5b8235905067ffffffffffffffff81111561503257615031614ff5565b5b60208301915083602082028301111561504e5761504d614ffa565b5b9250929050565b60008060006040848603121561506e5761506d614d1b565b5b600084013567ffffffffffffffff81111561508c5761508b614d20565b5b61509886828701614fff565b935093505060206150ab86828701614f71565b9150509250925092565b6000806000606084860312156150ce576150cd614d1b565b5b60006150dc86828701614f71565b93505060206150ed86828701614f71565b92505060406150fe86828701614ebc565b9150509250925092565b6000819050919050565b61511b81615108565b811461512657600080fd5b50565b60008135905061513881615112565b92915050565b60006020828403121561515457615153614d1b565b5b600061516284828501615129565b91505092915050565b61517481615108565b82525050565b600060208201905061518f600083018461516b565b92915050565b6000806000604084860312156151ae576151ad614d1b565b5b600084013567ffffffffffffffff8111156151cc576151cb614d20565b5b6151d886828701614fff565b935093505060206151eb86828701614ebc565b9150509250925092565b6000806040838503121561520c5761520b614d1b565b5b600061521a85828601615129565b925050602061522b85828601614f71565b9150509250929050565b60006020828403121561524b5761524a614d1b565b5b600061525984828501614f71565b91505092915050565b600080fd5b7f4e487b7100000000000000000000000000000000000000000000000000000000600052604160045260246000fd5b61529f82614e2f565b810181811067ffffffffffffffff821117156152be576152bd615267565b5b80604052505050565b60006152d1614d11565b90506152dd8282615296565b919050565b600067ffffffffffffffff8211156152fd576152fc615267565b5b61530682614e2f565b9050602081019050919050565b82818337600083830152505050565b6000615335615330846152e2565b6152c7565b90508281526020810184848401111561535157615350615262565b5b61535c848285615313565b509392505050565b600082601f83011261537957615378614ff0565b5b8135615389848260208601615322565b91505092915050565b6000602082840312156153a8576153a7614d1b565b5b600082013567ffffffffffffffff8111156153c6576153c5614d20565b5b6153d284828501615364565b91505092915050565b600080604083850312156153f2576153f1614d1b565b5b600061540085828601614ebc565b925050602061541185828601614ebc565b9150509250929050565b61542481614daa565b811461542f57600080fd5b50565b6000813590506154418161541b565b92915050565b6000806040838503121561545e5761545d614d1b565b5b600061546c85828601614f71565b925050602061547d85828601615432565b9150509250929050565b600067ffffffffffffffff8211156154a2576154a1615267565b5b6154ab82614e2f565b9050602081019050919050565b60006154cb6154c684615487565b6152c7565b9050828152602081018484840111156154e7576154e6615262565b5b6154f2848285615313565b509392505050565b600082601f83011261550f5761550e614ff0565b5b813561551f8482602086016154b8565b91505092915050565b6000806000806080858703121561554257615541614d1b565b5b600061555087828801614f71565b945050602061556187828801614f71565b935050604061557287828801614ebc565b925050606085013567ffffffffffffffff81111561559357615592614d20565b5b61559f878288016154fa565b91505092959194509250565b600080604083850312156155c2576155c1614d1b565b5b60006155d085828601614f71565b92505060206155e185828601614f71565b9150509250929050565b7f4e487b7100000000000000000000000000000000000000000000000000000000600052602260045260246000fd5b6000600282049050600182168061563257607f821691505b602082108103615645576156446155eb565b5b50919050565b7f4d75737420626520616e2061646d696e00000000000000000000000000000000600082015250565b6000615681601083614deb565b915061568c8261564b565b602082019050919050565b600060208201905081810360008301526156b081615674565b9050919050565b7f50524553414c455f494e41435449564500000000000000000000000000000000600082015250565b60006156ed601083614deb565b91506156f8826156b7565b602082019050919050565b6000602082019050818103600083015261571c816156e0565b9050919050565b7f50524553414c455f4e4f545f5645524946494544000000000000000000000000600082015250565b6000615759601483614deb565b915061576482615723565b602082019050919050565b600060208201905081810360008301526157888161574c565b9050919050565b7f4e487b7100000000000000000000000000000000000000000000000000000000600052601160045260246000fd5b60006157c982614e9b565b91506157d483614e9b565b9250827fffffffffffffffffffffffffffffffffffffffffffffffffffffffffffffffff038211156158095761580861578f565b5b828201905092915050565b7f455843454544535f434f4c4c454354494f4e5f53495a45000000000000000000600082015250565b600061584a601783614deb565b915061585582615814565b602082019050919050565b600060208201905081810360008301526158798161583d565b9050919050565b7f57484954454c4953545f544f4b454e5f4c494d49540000000000000000000000600082015250565b60006158b6601583614deb565b91506158c182615880565b602082019050919050565b600060208201905081810360008301526158e5816158a9565b9050919050565b60006158f782614e9b565b915061590283614e9b565b9250817fffffffffffffffffffffffffffffffffffffffffffffffffffffffffffffffff048311821515161561593b5761593a61578f565b5b828202905092915050565b7f56414c55455f544f4f5f4c4f5700000000000000000000000000000000000000600082015250565b600061597c600d83614deb565b915061598782615946565b602082019050919050565b600060208201905081810360008301526159ab8161596f565b9050919050565b7f4d455441444154415f46494e414c495a45440000000000000000000000000000600082015250565b60006159e8601283614deb565b91506159f3826159b2565b602082019050919050565b60006020820190508181036000830152615a17816159db565b9050919050565b7f416363657373436f6e74726f6c3a2063616e206f6e6c792072656e6f756e636560008201527f20726f6c657320666f722073656c660000000000000000000000000000000000602082015250565b6000615a7a602f83614deb565b9150615a8582615a1e565b604082019050919050565b60006020820190508181036000830152615aa981615a6d565b9050919050565b7f4e4f5f42414c414e434500000000000000000000000000000000000000000000600082015250565b6000615ae6600a83614deb565b9150615af182615ab0565b602082019050919050565b60006020820190508181036000830152615b1581615ad9565b9050919050565b600081905092915050565b50565b6000615b37600083615b1c565b9150615b4282615b27565b600082019050919050565b6000615b5882615b2a565b9150819050919050565b7f57495448445241575f4641494c45440000000000000000000000000000000000600082015250565b6000615b98600f83614deb565b9150615ba382615b62565b602082019050919050565b60006020820190508181036000830152615bc781615b8b565b9050919050565b7f54494d45535f46494e414c495a45440000000000000000000000000000000000600082015250565b6000615c04600f83614deb565b9150615c0f82615bce565b602082019050919050565b60006020820190508181036000830152615c3381615bf7565b9050919050565b7f414c52454144595f41495244524f505045440000000000000000000000000000600082015250565b6000615c70601283614deb565b9150615c7b82615c3a565b602082019050919050565b60006020820190508181036000830152615c9f81615c63565b9050919050565b7f455843454544535f41495244524f505f4c494d49540000000000000000000000600082015250565b6000615cdc601583614deb565b9150615ce782615ca6565b602082019050919050565b60006020820190508181036000830152615d0b81615ccf565b9050919050565b7f5245445543455f53495a455f4f4e4c5900000000000000000000000000000000600082015250565b6000615d48601083614deb565b9150615d5382615d12565b602082019050919050565b60006020820190508181036000830152615d7781615d3b565b9050919050565b7f4d41494e5441494e5f4558495354494e475f535550504c590000000000000000600082015250565b6000615db4601883614deb565b9150615dbf82615d7e565b602082019050919050565b60006020820190508181036000830152615de381615da7565b9050919050565b7f5055424c49435f53414c455f494e414354495645000000000000000000000000600082015250565b6000615e20601483614deb565b9150615e2b82615dea565b602082019050919050565b60006020820190508181036000830152615e4f81615e13565b9050919050565b7f5055424c49435f544f4b454e5f4c494d49540000000000000000000000000000600082015250565b6000615e8c601283614deb565b9150615e9782615e56565b602082019050919050565b60006020820190508181036000830152615ebb81615e7f565b9050919050565b7f4c4953545f46494e414c495a4544000000000000000000000000000000000000600082015250565b6000615ef8600e83614deb565b9150615f0382615ec2565b602082019050919050565b60006020820190508181036000830152615f2781615eeb565b9050919050565b7f494e56414c49445f494400000000000000000000000000000000000000000000600082015250565b6000615f64600a83614deb565b9150615f6f82615f2e565b602082019050919050565b60006020820190508181036000830152615f9381615f57565b9050919050565b600081905092915050565b6000615fb082614de0565b615fba8185615f9a565b9350615fca818560208601614dfc565b80840191505092915050565b7f2e6a736f6e000000000000000000000000000000000000000000000000000000600082015250565b600061600c600583615f9a565b915061601782615fd6565b600582019050919050565b600061602e8285615fa5565b915061603a8284615fa5565b915061604582615fff565b91508190509392505050565b60008160601b9050919050565b600061606982616051565b9050919050565b600061607b8261605e565b9050919050565b61609361608e82614f1e565b616070565b82525050565b60006160a58284616082565b60148201915081905092915050565b7f416363657373436f6e74726f6c3a206163636f756e7420000000000000000000600082015250565b60006160ea601783615f9a565b91506160f5826160b4565b601782019050919050565b7f206973206d697373696e6720726f6c6520000000000000000000000000000000600082015250565b6000616136601183615f9a565b915061614182616100565b601182019050919050565b6000616157826160dd565b91506161638285615fa5565b915061616e82616129565b915061617a8284615fa5565b91508190509392505050565b600081519050919050565b600082825260208201905092915050565b60006161ad82616186565b6161b78185616191565b93506161c7818560208601614dfc565b6161d081614e2f565b840191505092915050565b60006080820190506161f06000830187614f30565b6161fd6020830186614f30565b61620a6040830185614fc6565b818103606083015261621c81846161a2565b905095945050505050565b60008151905061623681614d51565b92915050565b60006020828403121561625257616251614d1b565b5b600061626084828501616227565b91505092915050565b600061627482614e9b565b91507fffffffffffffffffffffffffffffffffffffffffffffffffffffffffffffffff82036162a6576162a561578f565b5b600182019050919050565b7f4e487b7100000000000000000000000000000000000000000000000000000000600052601260045260246000fd5b60006162eb82614e9b565b91506162f683614e9b565b925082616306576163056162b1565b5b828204905092915050565b600061631c82614e9b565b915061632783614e9b565b92508282101561633a5761633961578f565b5b828203905092915050565b600061635082614e9b565b915061635b83614e9b565b92508261636b5761636a6162b1565b5b828206905092915050565b7f4e487b7100000000000000000000000000000000000000000000000000000000600052603260045260246000fd5b60006163b082614e9b565b9150600082036163c3576163c261578f565b5b600182039050919050565b7f537472696e67733a20686578206c656e67746820696e73756666696369656e74600082015250565b6000616404602083614deb565b915061640f826163ce565b602082019050919050565b60006020820190508181036000830152616433816163f7565b9050919050565b6000819050919050565b61645561645082615108565b61643a565b82525050565b60006164678285616444565b6020820191506164778284616444565b602082019150819050939250505056fea26469706673582212202bd6edbbbfa1cf0011038c82390f7d3294de148cc27dbcec091edbd3fca0476f64736f6c634300080d0033",
  "linkReferences": {},
  "deployedLinkReferences": {}
}